{
  "contractName": "UserRegistry",
  "abi": [
    {
      "inputs": [
        {
          "internalType": "address",
          "name": "",
          "type": "address"
        }
      ],
      "name": "users",
      "outputs": [
        {
          "internalType": "string",
          "name": "username",
          "type": "string"
        },
        {
          "internalType": "string",
          "name": "password",
          "type": "string"
        }
      ],
      "stateMutability": "view",
      "type": "function",
      "constant": true
    },
    {
      "inputs": [
        {
          "internalType": "address",
          "name": "userAddress",
          "type": "address"
        },
        {
          "internalType": "string",
          "name": "_username",
          "type": "string"
        },
        {
          "internalType": "string",
          "name": "_password",
          "type": "string"
        }
      ],
      "name": "registerUser",
      "outputs": [],
      "stateMutability": "nonpayable",
      "type": "function"
    },
    {
      "inputs": [
        {
          "internalType": "address",
          "name": "userAddress",
          "type": "address"
        }
      ],
      "name": "getUserData",
      "outputs": [
        {
          "internalType": "string",
          "name": "",
          "type": "string"
        },
        {
          "internalType": "string",
          "name": "",
          "type": "string"
        }
      ],
      "stateMutability": "view",
      "type": "function",
      "constant": true
    }
  ],
  "bytecode": "0x608060405234801561001057600080fd5b50610b65806100206000396000f3fe608060405234801561001057600080fd5b50600436106100415760003560e01c8063a87430ba14610046578063db0c87c914610077578063ffc9896b14610093575b600080fd5b610060600480360381019061005b9190610527565b6100c4565b60405161006e9291906105e4565b60405180910390f35b610091600480360381019061008c9190610750565b6101f8565b005b6100ad60048036038101906100a89190610527565b61030f565b6040516100bb9291906105e4565b60405180910390f35b60006020528060005260406000206000915090508060000180546100e79061080a565b80601f01602080910402602001604051908101604052809291908181526020018280546101139061080a565b80156101605780601f1061013557610100808354040283529160200191610160565b820191906000526020600020905b81548152906001019060200180831161014357829003601f168201915b5050505050908060010180546101759061080a565b80601f01602080910402602001604051908101604052809291908181526020018280546101a19061080a565b80156101ee5780601f106101c3576101008083540402835291602001916101ee565b820191906000526020600020905b8154815290600101906020018083116101d157829003601f168201915b5050505050905082565b60008060008573ffffffffffffffffffffffffffffffffffffffff1673ffffffffffffffffffffffffffffffffffffffff16815260200190815260200160002060000180546102469061080a565b905014610288576040517f08c379a000000000000000000000000000000000000000000000000000000000815260040161027f90610887565b60405180910390fd5b6040518060400160405280838152602001828152506000808573ffffffffffffffffffffffffffffffffffffffff1673ffffffffffffffffffffffffffffffffffffffff16815260200190815260200160002060008201518160000190816102f09190610a5d565b5060208201518160010190816103069190610a5d565b50905050505050565b6060806000808473ffffffffffffffffffffffffffffffffffffffff1673ffffffffffffffffffffffffffffffffffffffff1681526020019081526020016000206000016000808573ffffffffffffffffffffffffffffffffffffffff1673ffffffffffffffffffffffffffffffffffffffff1681526020019081526020016000206001018180546103a09061080a565b80601f01602080910402602001604051908101604052809291908181526020018280546103cc9061080a565b80156104195780601f106103ee57610100808354040283529160200191610419565b820191906000526020600020905b8154815290600101906020018083116103fc57829003601f168201915b5050505050915080805461042c9061080a565b80601f01602080910402602001604051908101604052809291908181526020018280546104589061080a565b80156104a55780601f1061047a576101008083540402835291602001916104a5565b820191906000526020600020905b81548152906001019060200180831161048857829003601f168201915b5050505050905091509150915091565b6000604051905090565b600080fd5b600080fd5b600073ffffffffffffffffffffffffffffffffffffffff82169050919050565b60006104f4826104c9565b9050919050565b610504816104e9565b811461050f57600080fd5b50565b600081359050610521816104fb565b92915050565b60006020828403121561053d5761053c6104bf565b5b600061054b84828501610512565b91505092915050565b600081519050919050565b600082825260208201905092915050565b60005b8381101561058e578082015181840152602081019050610573565b60008484015250505050565b6000601f19601f8301169050919050565b60006105b682610554565b6105c0818561055f565b93506105d0818560208601610570565b6105d98161059a565b840191505092915050565b600060408201905081810360008301526105fe81856105ab565b9050818103602083015261061281846105ab565b90509392505050565b600080fd5b600080fd5b7f4e487b7100000000000000000000000000000000000000000000000000000000600052604160045260246000fd5b61065d8261059a565b810181811067ffffffffffffffff8211171561067c5761067b610625565b5b80604052505050565b600061068f6104b5565b905061069b8282610654565b919050565b600067ffffffffffffffff8211156106bb576106ba610625565b5b6106c48261059a565b9050602081019050919050565b82818337600083830152505050565b60006106f36106ee846106a0565b610685565b90508281526020810184848401111561070f5761070e610620565b5b61071a8482856106d1565b509392505050565b600082601f8301126107375761073661061b565b5b81356107478482602086016106e0565b91505092915050565b600080600060608486031215610769576107686104bf565b5b600061077786828701610512565b935050602084013567ffffffffffffffff811115610798576107976104c4565b5b6107a486828701610722565b925050604084013567ffffffffffffffff8111156107c5576107c46104c4565b5b6107d186828701610722565b9150509250925092565b7f4e487b7100000000000000000000000000000000000000000000000000000000600052602260045260246000fd5b6000600282049050600182168061082257607f821691505b602082108103610835576108346107db565b5b50919050565b7f5573657220616c72656164792072656769737465726564000000000000000000600082015250565b600061087160178361055f565b915061087c8261083b565b602082019050919050565b600060208201905081810360008301526108a081610864565b9050919050565b60008190508160005260206000209050919050565b60006020601f8301049050919050565b600082821b905092915050565b6000600883026109097fffffffffffffffffffffffffffffffffffffffffffffffffffffffffffffffff826108cc565b61091386836108cc565b95508019841693508086168417925050509392505050565b6000819050919050565b6000819050919050565b600061095a6109556109508461092b565b610935565b61092b565b9050919050565b6000819050919050565b6109748361093f565b61098861098082610961565b8484546108d9565b825550505050565b600090565b61099d610990565b6109a881848461096b565b505050565b5b818110156109cc576109c1600082610995565b6001810190506109ae565b5050565b601f821115610a11576109e2816108a7565b6109eb846108bc565b810160208510156109fa578190505b610a0e610a06856108bc565b8301826109ad565b50505b505050565b600082821c905092915050565b6000610a3460001984600802610a16565b1980831691505092915050565b6000610a4d8383610a23565b9150826002028217905092915050565b610a6682610554565b67ffffffffffffffff811115610a7f57610a7e610625565b5b610a89825461080a565b610a948282856109d0565b600060209050601f831160018114610ac75760008415610ab5578287015190505b610abf8582610a41565b865550610b27565b601f198416610ad5866108a7565b60005b82811015610afd57848901518255600182019150602085019450602081019050610ad8565b86831015610b1a5784890151610b16601f891682610a23565b8355505b6001600288020188555050505b50505050505056fea2646970667358221220c616cdf9ab14eb09512771e7fe784ccb7e9d4e05350b456ba9915364f9cb4a3b64736f6c63430008130033",
  "immutableReferences": {},
  "source": "//SPDX-License-Identifier: UNLICENSED\r\n\r\npragma solidity 0.8.19;\r\n\r\n\r\ncontract UserRegistry {\r\n    struct UserData {\r\n        string username;\r\n        string password;\r\n    }\r\n\r\n    mapping(address => UserData) public users;\r\n\r\n    function registerUser(address userAddress, string memory _username, string memory _password) public {\r\n        require(bytes(users[userAddress].username).length == 0, \"User already registered\");\r\n        users[userAddress] = UserData(_username, _password);\r\n    }\r\n\r\n    function getUserData(address userAddress) public view returns (string memory, string memory) {\r\n        return (users[userAddress].username, users[userAddress].password);\r\n    }\r\n}\r\n",
  "sourcePath": "C:\\Users\\55544\\Desktop\\EtherVote\\etherium\\contracts\\UserRegistry.sol",
  "compiler": {
    "name": "solc",
    "version": "0.8.19+commit.7dd6d404.Emscripten.clang"
  },
  "schemaVersion": "3.4.16",
  "updatedAt": "2024-01-11T13:59:24.915Z",
  "networkType": "ethereum",
  "devdoc": {
    "kind": "dev",
    "methods": {},
    "version": 1
  },
  "userdoc": {
    "kind": "user",
    "methods": {},
    "version": 1
  }
}