{
  "contractName": "UserRegistry",
  "abi": [
    {
      "inputs": [
        {
          "internalType": "address",
          "name": "",
          "type": "address"
        }
      ],
      "name": "users",
      "outputs": [
        {
          "internalType": "string",
          "name": "username",
          "type": "string"
        },
        {
          "internalType": "string",
          "name": "password",
          "type": "string"
        }
      ],
      "stateMutability": "view",
      "type": "function",
      "constant": true
    },
    {
      "inputs": [
        {
          "internalType": "string",
          "name": "_username",
          "type": "string"
        },
        {
          "internalType": "string",
          "name": "_password",
          "type": "string"
        }
      ],
      "name": "registerUser",
      "outputs": [],
      "stateMutability": "nonpayable",
      "type": "function"
    },
    {
      "inputs": [],
      "name": "getUserData",
      "outputs": [
        {
          "internalType": "string",
          "name": "",
          "type": "string"
        },
        {
          "internalType": "string",
          "name": "",
          "type": "string"
        }
      ],
      "stateMutability": "view",
      "type": "function",
      "constant": true
    }
  ],
  "bytecode": "0x608060405234801561001057600080fd5b50610b3e806100206000396000f3fe608060405234801561001057600080fd5b50600436106100415760003560e01c80631d2e4afd1461004657806322e8c87d14610062578063a87430ba14610081575b600080fd5b610060600480360381019061005b91906105fb565b6100b2565b005b61006a6101c8565b6040516100789291906106f2565b60405180910390f35b61009b60048036038101906100969190610787565b61036d565b6040516100a99291906106f2565b60405180910390f35b60008060003373ffffffffffffffffffffffffffffffffffffffff1673ffffffffffffffffffffffffffffffffffffffff1681526020019081526020016000206000018054610100906107e3565b905014610142576040517f08c379a000000000000000000000000000000000000000000000000000000000815260040161013990610860565b60405180910390fd5b6040518060400160405280838152602001828152506000803373ffffffffffffffffffffffffffffffffffffffff1673ffffffffffffffffffffffffffffffffffffffff16815260200190815260200160002060008201518160000190816101aa9190610a36565b5060208201518160010190816101c09190610a36565b509050505050565b6060806000803373ffffffffffffffffffffffffffffffffffffffff1673ffffffffffffffffffffffffffffffffffffffff1681526020019081526020016000206000016000803373ffffffffffffffffffffffffffffffffffffffff1673ffffffffffffffffffffffffffffffffffffffff168152602001908152602001600020600101818054610259906107e3565b80601f0160208091040260200160405190810160405280929190818152602001828054610285906107e3565b80156102d25780601f106102a7576101008083540402835291602001916102d2565b820191906000526020600020905b8154815290600101906020018083116102b557829003601f168201915b505050505091508080546102e5906107e3565b80601f0160208091040260200160405190810160405280929190818152602001828054610311906107e3565b801561035e5780601f106103335761010080835404028352916020019161035e565b820191906000526020600020905b81548152906001019060200180831161034157829003601f168201915b50505050509050915091509091565b6000602052806000526040600020600091509050806000018054610390906107e3565b80601f01602080910402602001604051908101604052809291908181526020018280546103bc906107e3565b80156104095780601f106103de57610100808354040283529160200191610409565b820191906000526020600020905b8154815290600101906020018083116103ec57829003601f168201915b50505050509080600101805461041e906107e3565b80601f016020809104026020016040519081016040528092919081815260200182805461044a906107e3565b80156104975780601f1061046c57610100808354040283529160200191610497565b820191906000526020600020905b81548152906001019060200180831161047a57829003601f168201915b5050505050905082565b6000604051905090565b600080fd5b600080fd5b600080fd5b600080fd5b6000601f19601f8301169050919050565b7f4e487b7100000000000000000000000000000000000000000000000000000000600052604160045260246000fd5b610508826104bf565b810181811067ffffffffffffffff82111715610527576105266104d0565b5b80604052505050565b600061053a6104a1565b905061054682826104ff565b919050565b600067ffffffffffffffff821115610566576105656104d0565b5b61056f826104bf565b9050602081019050919050565b82818337600083830152505050565b600061059e6105998461054b565b610530565b9050828152602081018484840111156105ba576105b96104ba565b5b6105c584828561057c565b509392505050565b600082601f8301126105e2576105e16104b5565b5b81356105f284826020860161058b565b91505092915050565b60008060408385031215610612576106116104ab565b5b600083013567ffffffffffffffff8111156106305761062f6104b0565b5b61063c858286016105cd565b925050602083013567ffffffffffffffff81111561065d5761065c6104b0565b5b610669858286016105cd565b9150509250929050565b600081519050919050565b600082825260208201905092915050565b60005b838110156106ad578082015181840152602081019050610692565b60008484015250505050565b60006106c482610673565b6106ce818561067e565b93506106de81856020860161068f565b6106e7816104bf565b840191505092915050565b6000604082019050818103600083015261070c81856106b9565b9050818103602083015261072081846106b9565b90509392505050565b600073ffffffffffffffffffffffffffffffffffffffff82169050919050565b600061075482610729565b9050919050565b61076481610749565b811461076f57600080fd5b50565b6000813590506107818161075b565b92915050565b60006020828403121561079d5761079c6104ab565b5b60006107ab84828501610772565b91505092915050565b7f4e487b7100000000000000000000000000000000000000000000000000000000600052602260045260246000fd5b600060028204905060018216806107fb57607f821691505b60208210810361080e5761080d6107b4565b5b50919050565b7f5573657220616c72656164792072656769737465726564000000000000000000600082015250565b600061084a60178361067e565b915061085582610814565b602082019050919050565b600060208201905081810360008301526108798161083d565b9050919050565b60008190508160005260206000209050919050565b60006020601f8301049050919050565b600082821b905092915050565b6000600883026108e27fffffffffffffffffffffffffffffffffffffffffffffffffffffffffffffffff826108a5565b6108ec86836108a5565b95508019841693508086168417925050509392505050565b6000819050919050565b6000819050919050565b600061093361092e61092984610904565b61090e565b610904565b9050919050565b6000819050919050565b61094d83610918565b6109616109598261093a565b8484546108b2565b825550505050565b600090565b610976610969565b610981818484610944565b505050565b5b818110156109a55761099a60008261096e565b600181019050610987565b5050565b601f8211156109ea576109bb81610880565b6109c484610895565b810160208510156109d3578190505b6109e76109df85610895565b830182610986565b50505b505050565b600082821c905092915050565b6000610a0d600019846008026109ef565b1980831691505092915050565b6000610a2683836109fc565b9150826002028217905092915050565b610a3f82610673565b67ffffffffffffffff811115610a5857610a576104d0565b5b610a6282546107e3565b610a6d8282856109a9565b600060209050601f831160018114610aa05760008415610a8e578287015190505b610a988582610a1a565b865550610b00565b601f198416610aae86610880565b60005b82811015610ad657848901518255600182019150602085019450602081019050610ab1565b86831015610af35784890151610aef601f8916826109fc565b8355505b6001600288020188555050505b50505050505056fea26469706673582212208542705b635e4d2b5d0d621995c3395a6f4dc015c022b175a0dfa03021aba76964736f6c63430008130033",
  "immutableReferences": {},
  "source": "//SPDX-License-Identifier: UNLICENSED\r\n\r\npragma solidity 0.8.19;\r\n\r\n\r\ncontract UserRegistry {\r\n    struct UserData {\r\n        string username;\r\n        string password; //         \r\n    }\r\n\r\n    mapping(address => UserData) public users;\r\n\r\n    function registerUser(string memory _username, string memory _password) public {\r\n        require(bytes(users[msg.sender].username).length == 0, \"User already registered\");\r\n        users[msg.sender] = UserData(_username, _password);\r\n    }\r\n\r\n    function getUserData() public view returns (string memory, string memory) {\r\n        return (users[msg.sender].username, users[msg.sender].password);\r\n    }\r\n}\r\n",
  "sourcePath": "C:\\Users\\55544\\Desktop\\EtherVote\\etherium\\contracts\\UserRegistry.sol",
  "compiler": {
    "name": "solc",
    "version": "0.8.19+commit.7dd6d404.Emscripten.clang"
  },
  "schemaVersion": "3.4.16",
  "updatedAt": "2024-01-10T11:27:06.438Z",
  "networkType": "ethereum",
  "devdoc": {
    "kind": "dev",
    "methods": {},
    "version": 1
  },
  "userdoc": {
    "kind": "user",
    "methods": {},
    "version": 1
  }
}