{
  "contractName": "Verifier",
  "abi": [
    {
      "inputs": [
        {
          "components": [
            {
              "components": [
                {
                  "internalType": "uint256",
                  "name": "X",
                  "type": "uint256"
                },
                {
                  "internalType": "uint256",
                  "name": "Y",
                  "type": "uint256"
                }
              ],
              "internalType": "struct Pairing.G1Point",
              "name": "a",
              "type": "tuple"
            },
            {
              "components": [
                {
                  "internalType": "uint256[2]",
                  "name": "X",
                  "type": "uint256[2]"
                },
                {
                  "internalType": "uint256[2]",
                  "name": "Y",
                  "type": "uint256[2]"
                }
              ],
              "internalType": "struct Pairing.G2Point",
              "name": "b",
              "type": "tuple"
            },
            {
              "components": [
                {
                  "internalType": "uint256",
                  "name": "X",
                  "type": "uint256"
                },
                {
                  "internalType": "uint256",
                  "name": "Y",
                  "type": "uint256"
                }
              ],
              "internalType": "struct Pairing.G1Point",
              "name": "c",
              "type": "tuple"
            }
          ],
          "internalType": "struct Verifier.Proof",
          "name": "proof",
          "type": "tuple"
        },
        {
          "internalType": "uint256[2]",
          "name": "input",
          "type": "uint256[2]"
        }
      ],
      "name": "verifyTx",
      "outputs": [
        {
          "internalType": "bool",
          "name": "r",
          "type": "bool"
        }
      ],
      "stateMutability": "view",
      "type": "function",
      "constant": true
    }
  ],
  "bytecode": "0x608060405234801561001057600080fd5b50611474806100206000396000f3fe608060405234801561001057600080fd5b506004361061002b5760003560e01c806343cd76fc14610030575b600080fd5b61004a60048036038101906100459190611216565b610060565b6040516100579190611273565b60405180910390f35b600080600267ffffffffffffffff81111561007e5761007d610fa5565b5b6040519080825280602002602001820160405280156100ac5781602001602082028036833780820191505090505b50905060005b6002811015610105578381600281106100ce576100cd61128e565b5b60200201518282815181106100e6576100e561128e565b5b60200260200101818152505080806100fd906112ec565b9150506100b2565b506000610112828661012d565b03610121576001915050610127565b60009150505b92915050565b6000807f30644e72e131a029b85045b68181585d2833e84879b9709143e1f593f00000019050600061015d6102c4565b9050806080015151600186516101739190611334565b1461017d57600080fd5b60006040518060400160405280600081526020016000815250905060005b865181101561023657838782815181106101b8576101b761128e565b5b6020026020010151106101ca57600080fd5b6102218261021c85608001516001856101e39190611334565b815181106101f4576101f361128e565b5b60200260200101518a858151811061020f5761020e61128e565b5b602002602001015161073f565b6107e1565b9150808061022e906112ec565b91505061019b565b506102608183608001516000815181106102535761025261128e565b5b60200260200101516107e1565b90506102a685600001518660200151610278846108a9565b856040015161028a8a604001516108a9565b876060015161029c89600001516108a9565b896020015161094e565b6102b657600193505050506102be565b600093505050505b92915050565b6102cc610e71565b60405180604001604052807f26b5ed7fbdd1fa8fc93ab749989bab202c22b0a3d8707fc017e2495c5f4691b781526020017f17db6fd9b86a269a3f02eb59c79f63b97fad97430f90a2fbb35a40594f860b978152508160000181905250604051806040016040528060405180604001604052807f01e81e90c91130b6e5addec06ec62e69af0c6884dee74a8ac05eaf600c2ed27281526020017f1c891bd5f2662503bb79793333a68034f19cdc17c53e979a59b2d11b291407af815250815260200160405180604001604052807f235ea82ffce62de9c50717882c5cf8c00310d68cedb0e5860a2f7ac3a1428edf81526020017f16f99a3cb1621043376329458f49dc58a3bc73c93501cd8f70241e4fdc4d2de68152508152508160200181905250604051806040016040528060405180604001604052807f275bf645ec4c3fe8224d87424a91d1232190e9fed323ca6e59a069ce2567882181526020017f0444dc531eb05b7a75c4a9d5608c553f098b8aa30f43f817c21d7b09c556dbd0815250815260200160405180604001604052807f29fa5fa75eecb253f29d8e00841d0c82ebab51b503c097a275d8e32328a34ffc81526020017f2c67741b388c40ba8c727f353a44aa917e68d064bc136cb716a97fc505880c148152508152508160400181905250604051806040016040528060405180604001604052807e157ed93f531626cbdf6a96956415f8b4e866744d72fae76629e7620132bf5381526020017f0b0b2c7b082b1a4aa50aee12ba5c420e104a91dca83566d19b12345de46ead47815250815260200160405180604001604052807f1534bec759214fbde04ec58e83be5a08a3107b58d3cecfc6cbd5ec7ad674fc3c81526020017f2a3ccddcde9b7ff09a46c4e17b6a0772f929fb09e0a3fe33a6dc0f55ebe3db4b8152508152508160600181905250600367ffffffffffffffff81111561059257610591610fa5565b5b6040519080825280602002602001820160405280156105cb57816020015b6105b8610eb8565b8152602001906001900390816105b05790505b50816080018190525060405180604001604052807f0badfa046127250260d994eeeda428b1ec7893ef0abf9f6b8f7ca74aad28535481526020017f184ae689fab181bc3a6abc64e9d32b93921a57a8a917398153087fa6a5b59d7381525081608001516000815181106106415761064061128e565b5b602002602001018190525060405180604001604052807f28aa487acd9aad0863768be3fa0236efb338aed395ba70966bb3fc3dfa86507b81526020017f279f3522102229fe629c870daa9f21a6d1dc6684e5b5b93838e44e806ac11e9181525081608001516001815181106106b9576106b861128e565b5b602002602001018190525060405180604001604052807f2c838c109e7dc538a51158a429d4a54e8e7569d0bc224449b32bd985a17e937a81526020017f18831939c998f51d868050303a91abfaded96947aaa98e58a273afbe4e56f5dd81525081608001516002815181106107315761073061128e565b5b602002602001018190525090565b610747610eb8565b61074f610ed2565b8360000151816000600381106107685761076761128e565b5b60200201818152505083602001518160016003811061078a5761078961128e565b5b60200201818152505082816002600381106107a8576107a761128e565b5b602002018181525050600060608360808460076107d05a03fa905080600081036107ce57fe5b50806107d957600080fd5b505092915050565b6107e9610eb8565b6107f1610ef4565b83600001518160006004811061080a5761080961128e565b5b60200201818152505083602001518160016004811061082c5761082b61128e565b5b60200201818152505082600001518160026004811061084e5761084d61128e565b5b6020020181815250508260200151816003600481106108705761086f61128e565b5b602002018181525050600060608360c08460066107d05a03fa9050806000810361089657fe5b50806108a157600080fd5b505092915050565b6108b1610eb8565b60007f30644e72e131a029b85045b68181585d97816a916871ca8d3c208c16d87cfd479050600083600001511480156108ee575060008360200151145b15610912576040518060400160405280600081526020016000815250915050610949565b6040518060400160405280846000015181526020018285602001516109379190611397565b8361094291906113c8565b8152509150505b919050565b600080600467ffffffffffffffff81111561096c5761096b610fa5565b5b6040519080825280602002602001820160405280156109a557816020015b610992610eb8565b81526020019060019003908161098a5790505b5090506000600467ffffffffffffffff8111156109c5576109c4610fa5565b5b6040519080825280602002602001820160405280156109fe57816020015b6109eb610f16565b8152602001906001900390816109e35790505b5090508a82600081518110610a1657610a1561128e565b5b60200260200101819052508882600181518110610a3657610a3561128e565b5b60200260200101819052508682600281518110610a5657610a5561128e565b5b60200260200101819052508482600381518110610a7657610a7561128e565b5b60200260200101819052508981600081518110610a9657610a9561128e565b5b60200260200101819052508781600181518110610ab657610ab561128e565b5b60200260200101819052508581600281518110610ad657610ad561128e565b5b60200260200101819052508381600381518110610af657610af561128e565b5b6020026020010181905250610b0b8282610b1b565b9250505098975050505050505050565b60008151835114610b2b57600080fd5b6000835190506000600682610b4091906113fc565b905060008167ffffffffffffffff811115610b5e57610b5d610fa5565b5b604051908082528060200260200182016040528015610b8c5781602001602082028036833780820191505090505b50905060005b83811015610e1157868181518110610bad57610bac61128e565b5b602002602001015160000151826000600684610bc991906113fc565b610bd39190611334565b81518110610be457610be361128e565b5b602002602001018181525050868181518110610c0357610c0261128e565b5b602002602001015160200151826001600684610c1f91906113fc565b610c299190611334565b81518110610c3a57610c3961128e565b5b602002602001018181525050858181518110610c5957610c5861128e565b5b602002602001015160000151600160028110610c7857610c7761128e565b5b6020020151826002600684610c8d91906113fc565b610c979190611334565b81518110610ca857610ca761128e565b5b602002602001018181525050858181518110610cc757610cc661128e565b5b602002602001015160000151600060028110610ce657610ce561128e565b5b6020020151826003600684610cfb91906113fc565b610d059190611334565b81518110610d1657610d1561128e565b5b602002602001018181525050858181518110610d3557610d3461128e565b5b602002602001015160200151600160028110610d5457610d5361128e565b5b6020020151826004600684610d6991906113fc565b610d739190611334565b81518110610d8457610d8361128e565b5b602002602001018181525050858181518110610da357610da261128e565b5b602002602001015160200151600060028110610dc257610dc161128e565b5b6020020151826005600684610dd791906113fc565b610de19190611334565b81518110610df257610df161128e565b5b6020026020010181815250508080610e09906112ec565b915050610b92565b50610e1a610f3c565b6000602082602086026020860160086107d05a03fa90508060008103610e3c57fe5b5080610e4757600080fd5b600082600060018110610e5d57610e5c61128e565b5b602002015114159550505050505092915050565b6040518060a00160405280610e84610eb8565b8152602001610e91610f16565b8152602001610e9e610f16565b8152602001610eab610f16565b8152602001606081525090565b604051806040016040528060008152602001600081525090565b6040518060600160405280600390602082028036833780820191505090505090565b6040518060800160405280600490602082028036833780820191505090505090565b6040518060400160405280610f29610f5e565b8152602001610f36610f5e565b81525090565b6040518060200160405280600190602082028036833780820191505090505090565b6040518060400160405280600290602082028036833780820191505090505090565b6000604051905090565b600080fd5b600080fd5b6000601f19601f8301169050919050565b7f4e487b7100000000000000000000000000000000000000000000000000000000600052604160045260246000fd5b610fdd82610f94565b810181811067ffffffffffffffff82111715610ffc57610ffb610fa5565b5b80604052505050565b600061100f610f80565b905061101b8282610fd4565b919050565b6000819050919050565b61103381611020565b811461103e57600080fd5b50565b6000813590506110508161102a565b92915050565b60006040828403121561106c5761106b610f8f565b5b6110766040611005565b9050600061108684828501611041565b600083015250602061109a84828501611041565b60208301525092915050565b600080fd5b600067ffffffffffffffff8211156110c6576110c5610fa5565b5b602082029050919050565b600080fd5b60006110e96110e4846110ab565b611005565b90508060208402830185811115611103576111026110d1565b5b835b8181101561112c57806111188882611041565b845260208401935050602081019050611105565b5050509392505050565b600082601f83011261114b5761114a6110a6565b5b60026111588482856110d6565b91505092915050565b60006080828403121561117757611176610f8f565b5b6111816040611005565b9050600061119184828501611136565b60008301525060406111a584828501611136565b60208301525092915050565b600061010082840312156111c8576111c7610f8f565b5b6111d26060611005565b905060006111e284828501611056565b60008301525060406111f684828501611161565b60208301525060c061120a84828501611056565b60408301525092915050565b600080610140838503121561122e5761122d610f8a565b5b600061123c858286016111b1565b92505061010061124e85828601611136565b9150509250929050565b60008115159050919050565b61126d81611258565b82525050565b60006020820190506112886000830184611264565b92915050565b7f4e487b7100000000000000000000000000000000000000000000000000000000600052603260045260246000fd5b7f4e487b7100000000000000000000000000000000000000000000000000000000600052601160045260246000fd5b60006112f782611020565b91507fffffffffffffffffffffffffffffffffffffffffffffffffffffffffffffffff8203611329576113286112bd565b5b600182019050919050565b600061133f82611020565b915061134a83611020565b9250828201905080821115611362576113616112bd565b5b92915050565b7f4e487b7100000000000000000000000000000000000000000000000000000000600052601260045260246000fd5b60006113a282611020565b91506113ad83611020565b9250826113bd576113bc611368565b5b828206905092915050565b60006113d382611020565b91506113de83611020565b92508282039050818111156113f6576113f56112bd565b5b92915050565b600061140782611020565b915061141283611020565b925082820261142081611020565b91508282048414831517611437576114366112bd565b5b509291505056fea26469706673582212206f01bf3cd531c9cfb7c4b28162b0506993f3d66bdd73416fdbb36b1c48009f2164736f6c63430008130033",
  "immutableReferences": {},
  "source": "//SPDX-License-Identifier: UNLICENSED\npragma solidity ^0.8.19;\nlibrary Pairing {\n    struct G1Point {\n        uint X;\n        uint Y;\n    }\n    // Encoding of field elements is: X[0] * z + X[1]\n    struct G2Point {\n        uint[2] X;\n        uint[2] Y;\n    }\n    /// @return the generator of G1\n    function P1() pure internal returns (G1Point memory) {\n        return G1Point(1, 2);\n    }\n    /// @return the generator of G2\n    function P2() pure internal returns (G2Point memory) {\n        return G2Point(\n            [10857046999023057135944570762232829481370756359578518086990519993285655852781,\n             11559732032986387107991004021392285783925812861821192530917403151452391805634],\n            [8495653923123431417604973247489272438418190587263600148770280649306958101930,\n             4082367875863433681332203403145435568316851327593401208105741076214120093531]\n        );\n    }\n    /// @return the negation of p, i.e. p.addition(p.negate()) should be zero.\n    function negate(G1Point memory p) pure internal returns (G1Point memory) {\n        // The prime q in the base field F_q for G1\n        uint q = 21888242871839275222246405745257275088696311157297823662689037894645226208583;\n        if (p.X == 0 && p.Y == 0)\n            return G1Point(0, 0);\n        return G1Point(p.X, q - (p.Y % q));\n    }\n    /// @return r the sum of two points of G1\n    function addition(G1Point memory p1, G1Point memory p2) internal view returns (G1Point memory r) {\n        uint[4] memory input;\n        input[0] = p1.X;\n        input[1] = p1.Y;\n        input[2] = p2.X;\n        input[3] = p2.Y;\n        bool success;\n        assembly {\n            success := staticcall(sub(gas(), 2000), 6, input, 0xc0, r, 0x60)\n            // Use \"invalid\" to make gas estimation work\n            switch success case 0 { invalid() }\n        }\n        require(success);\n    }\n\n\n    /// @return r the product of a point on G1 and a scalar, i.e.\n    /// p == p.scalar_mul(1) and p.addition(p) == p.scalar_mul(2) for all points p.\n    function scalar_mul(G1Point memory p, uint s) internal view returns (G1Point memory r) {\n        uint[3] memory input;\n        input[0] = p.X;\n        input[1] = p.Y;\n        input[2] = s;\n        bool success;\n        assembly {\n            success := staticcall(sub(gas(), 2000), 7, input, 0x80, r, 0x60)\n            // Use \"invalid\" to make gas estimation work\n            switch success case 0 { invalid() }\n        }\n        require (success);\n    }\n    /// @return the result of computing the pairing check\n    /// e(p1[0], p2[0]) *  .... * e(p1[n], p2[n]) == 1\n    /// For example pairing([P1(), P1().negate()], [P2(), P2()]) should\n    /// return true.\n    function pairing(G1Point[] memory p1, G2Point[] memory p2) internal view returns (bool) {\n        require(p1.length == p2.length);\n        uint elements = p1.length;\n        uint inputSize = elements * 6;\n        uint[] memory input = new uint[](inputSize);\n        for (uint i = 0; i < elements; i++)\n        {\n            input[i * 6 + 0] = p1[i].X;\n            input[i * 6 + 1] = p1[i].Y;\n            input[i * 6 + 2] = p2[i].X[1];\n            input[i * 6 + 3] = p2[i].X[0];\n            input[i * 6 + 4] = p2[i].Y[1];\n            input[i * 6 + 5] = p2[i].Y[0];\n        }\n        uint[1] memory out;\n        bool success;\n        assembly {\n            success := staticcall(sub(gas(), 2000), 8, add(input, 0x20), mul(inputSize, 0x20), out, 0x20)\n            // Use \"invalid\" to make gas estimation work\n            switch success case 0 { invalid() }\n        }\n        require(success);\n        return out[0] != 0;\n    }\n    /// Convenience method for a pairing check for two pairs.\n    function pairingProd2(G1Point memory a1, G2Point memory a2, G1Point memory b1, G2Point memory b2) internal view returns (bool) {\n        G1Point[] memory p1 = new G1Point[](2);\n        G2Point[] memory p2 = new G2Point[](2);\n        p1[0] = a1;\n        p1[1] = b1;\n        p2[0] = a2;\n        p2[1] = b2;\n        return pairing(p1, p2);\n    }\n    /// Convenience method for a pairing check for three pairs.\n    function pairingProd3(\n            G1Point memory a1, G2Point memory a2,\n            G1Point memory b1, G2Point memory b2,\n            G1Point memory c1, G2Point memory c2\n    ) internal view returns (bool) {\n        G1Point[] memory p1 = new G1Point[](3);\n        G2Point[] memory p2 = new G2Point[](3);\n        p1[0] = a1;\n        p1[1] = b1;\n        p1[2] = c1;\n        p2[0] = a2;\n        p2[1] = b2;\n        p2[2] = c2;\n        return pairing(p1, p2);\n    }\n    /// Convenience method for a pairing check for four pairs.\n    function pairingProd4(\n            G1Point memory a1, G2Point memory a2,\n            G1Point memory b1, G2Point memory b2,\n            G1Point memory c1, G2Point memory c2,\n            G1Point memory d1, G2Point memory d2\n    ) internal view returns (bool) {\n        G1Point[] memory p1 = new G1Point[](4);\n        G2Point[] memory p2 = new G2Point[](4);\n        p1[0] = a1;\n        p1[1] = b1;\n        p1[2] = c1;\n        p1[3] = d1;\n        p2[0] = a2;\n        p2[1] = b2;\n        p2[2] = c2;\n        p2[3] = d2;\n        return pairing(p1, p2);\n    }\n}\n\ncontract Verifier {\n    using Pairing for *;\n    struct VerifyingKey {\n        Pairing.G1Point alpha;\n        Pairing.G2Point beta;\n        Pairing.G2Point gamma;\n        Pairing.G2Point delta;\n        Pairing.G1Point[] gamma_abc;\n    }\n    struct Proof {\n        Pairing.G1Point a;\n        Pairing.G2Point b;\n        Pairing.G1Point c;\n    }\n    function verifyingKey() pure internal returns (VerifyingKey memory vk) {\n        vk.alpha = Pairing.G1Point(uint256(0x26b5ed7fbdd1fa8fc93ab749989bab202c22b0a3d8707fc017e2495c5f4691b7), uint256(0x17db6fd9b86a269a3f02eb59c79f63b97fad97430f90a2fbb35a40594f860b97));\n        vk.beta = Pairing.G2Point([uint256(0x01e81e90c91130b6e5addec06ec62e69af0c6884dee74a8ac05eaf600c2ed272), uint256(0x1c891bd5f2662503bb79793333a68034f19cdc17c53e979a59b2d11b291407af)], [uint256(0x235ea82ffce62de9c50717882c5cf8c00310d68cedb0e5860a2f7ac3a1428edf), uint256(0x16f99a3cb1621043376329458f49dc58a3bc73c93501cd8f70241e4fdc4d2de6)]);\n        vk.gamma = Pairing.G2Point([uint256(0x275bf645ec4c3fe8224d87424a91d1232190e9fed323ca6e59a069ce25678821), uint256(0x0444dc531eb05b7a75c4a9d5608c553f098b8aa30f43f817c21d7b09c556dbd0)], [uint256(0x29fa5fa75eecb253f29d8e00841d0c82ebab51b503c097a275d8e32328a34ffc), uint256(0x2c67741b388c40ba8c727f353a44aa917e68d064bc136cb716a97fc505880c14)]);\n        vk.delta = Pairing.G2Point([uint256(0x00157ed93f531626cbdf6a96956415f8b4e866744d72fae76629e7620132bf53), uint256(0x0b0b2c7b082b1a4aa50aee12ba5c420e104a91dca83566d19b12345de46ead47)], [uint256(0x1534bec759214fbde04ec58e83be5a08a3107b58d3cecfc6cbd5ec7ad674fc3c), uint256(0x2a3ccddcde9b7ff09a46c4e17b6a0772f929fb09e0a3fe33a6dc0f55ebe3db4b)]);\n        vk.gamma_abc = new Pairing.G1Point[](3);\n        vk.gamma_abc[0] = Pairing.G1Point(uint256(0x0badfa046127250260d994eeeda428b1ec7893ef0abf9f6b8f7ca74aad285354), uint256(0x184ae689fab181bc3a6abc64e9d32b93921a57a8a917398153087fa6a5b59d73));\n        vk.gamma_abc[1] = Pairing.G1Point(uint256(0x28aa487acd9aad0863768be3fa0236efb338aed395ba70966bb3fc3dfa86507b), uint256(0x279f3522102229fe629c870daa9f21a6d1dc6684e5b5b93838e44e806ac11e91));\n        vk.gamma_abc[2] = Pairing.G1Point(uint256(0x2c838c109e7dc538a51158a429d4a54e8e7569d0bc224449b32bd985a17e937a), uint256(0x18831939c998f51d868050303a91abfaded96947aaa98e58a273afbe4e56f5dd));\n    }\n    function verify(uint[] memory input, Proof memory proof) internal view returns (uint) {\n        uint256 snark_scalar_field = 21888242871839275222246405745257275088548364400416034343698204186575808495617;\n        VerifyingKey memory vk = verifyingKey();\n        require(input.length + 1 == vk.gamma_abc.length);\n        // Compute the linear combination vk_x\n        Pairing.G1Point memory vk_x = Pairing.G1Point(0, 0);\n        for (uint i = 0; i < input.length; i++) {\n            require(input[i] < snark_scalar_field);\n            vk_x = Pairing.addition(vk_x, Pairing.scalar_mul(vk.gamma_abc[i + 1], input[i]));\n        }\n        vk_x = Pairing.addition(vk_x, vk.gamma_abc[0]);\n        if(!Pairing.pairingProd4(\n             proof.a, proof.b,\n             Pairing.negate(vk_x), vk.gamma,\n             Pairing.negate(proof.c), vk.delta,\n             Pairing.negate(vk.alpha), vk.beta)) return 1;\n        return 0;\n    }\n    function verifyTx(\n            Proof memory proof, uint[2] memory input\n        ) public view returns (bool r) {\n        uint[] memory inputValues = new uint[](2);\n        \n        for(uint i = 0; i < input.length; i++){\n            inputValues[i] = input[i];\n        }\n        if (verify(inputValues, proof) == 0) {\n            return true;\n        } else {\n            return false;\n        }\n    }\n}\n",
  "sourcePath": "C:\\Users\\55544\\Desktop\\EtherVote\\etherium\\zk\\Verifier.sol",
  "compiler": {
    "name": "solc",
    "version": "0.8.19+commit.7dd6d404.Emscripten.clang"
  },
  "schemaVersion": "3.4.16",
  "updatedAt": "2024-01-17T15:06:37.263Z",
  "networkType": "ethereum",
  "devdoc": {
    "kind": "dev",
    "methods": {},
    "version": 1
  },
  "userdoc": {
    "kind": "user",
    "methods": {},
    "version": 1
  }
}