{
  "contractName": "Voting",
  "abi": [
    {
      "inputs": [
        {
          "internalType": "address",
          "name": "_verifier",
          "type": "address"
        }
      ],
      "stateMutability": "nonpayable",
      "type": "constructor"
    },
    {
      "anonymous": false,
      "inputs": [
        {
          "indexed": true,
          "internalType": "address",
          "name": "voter",
          "type": "address"
        },
        {
          "indexed": false,
          "internalType": "uint256",
          "name": "proposalIndex",
          "type": "uint256"
        },
        {
          "indexed": false,
          "internalType": "uint256",
          "name": "optionIndex",
          "type": "uint256"
        }
      ],
      "name": "Voted",
      "type": "event"
    },
    {
      "inputs": [
        {
          "internalType": "uint256",
          "name": "",
          "type": "uint256"
        }
      ],
      "name": "proposals",
      "outputs": [
        {
          "internalType": "string",
          "name": "topic",
          "type": "string"
        },
        {
          "internalType": "string",
          "name": "description",
          "type": "string"
        }
      ],
      "stateMutability": "view",
      "type": "function",
      "constant": true
    },
    {
      "inputs": [
        {
          "internalType": "string",
          "name": "_topic",
          "type": "string"
        },
        {
          "internalType": "string",
          "name": "_description",
          "type": "string"
        },
        {
          "internalType": "string[]",
          "name": "_options",
          "type": "string[]"
        }
      ],
      "name": "addProposal",
      "outputs": [],
      "stateMutability": "nonpayable",
      "type": "function"
    },
    {
      "inputs": [
        {
          "internalType": "uint256",
          "name": "proposalIndex",
          "type": "uint256"
        },
        {
          "internalType": "uint256",
          "name": "optionIndex",
          "type": "uint256"
        }
      ],
      "name": "vote",
      "outputs": [],
      "stateMutability": "nonpayable",
      "type": "function"
    },
    {
      "inputs": [
        {
          "internalType": "uint256",
          "name": "proposalIndex",
          "type": "uint256"
        }
      ],
      "name": "getProposalInfo",
      "outputs": [
        {
          "internalType": "string",
          "name": "",
          "type": "string"
        },
        {
          "internalType": "string",
          "name": "",
          "type": "string"
        },
        {
          "internalType": "string[]",
          "name": "",
          "type": "string[]"
        },
        {
          "internalType": "uint256[]",
          "name": "",
          "type": "uint256[]"
        }
      ],
      "stateMutability": "view",
      "type": "function",
      "constant": true
    },
    {
      "inputs": [],
      "name": "proposalsCount",
      "outputs": [
        {
          "internalType": "uint256",
          "name": "",
          "type": "uint256"
        }
      ],
      "stateMutability": "view",
      "type": "function",
      "constant": true
    }
  ],
  "bytecode": "0x60806040523480156200001157600080fd5b5060405162001860380380620018608339818101604052810190620000379190620000e9565b80600160006101000a81548173ffffffffffffffffffffffffffffffffffffffff021916908373ffffffffffffffffffffffffffffffffffffffff160217905550506200011b565b600080fd5b600073ffffffffffffffffffffffffffffffffffffffff82169050919050565b6000620000b18262000084565b9050919050565b620000c381620000a4565b8114620000cf57600080fd5b50565b600081519050620000e381620000b8565b92915050565b6000602082840312156200010257620001016200007f565b5b60006200011284828501620000d2565b91505092915050565b611735806200012b6000396000f3fe608060405234801561001057600080fd5b50600436106100575760003560e01c8063013cf08b1461005c5780630a9f46ad1461008d5780637a0074d2146100ab578063b384abef146100c7578063bc903cb8146100e3575b600080fd5b61007660048036038101906100719190610b23565b610116565b604051610084929190610be0565b60405180910390f35b61009561025a565b6040516100a29190610c26565b60405180910390f35b6100c560048036038101906100c09190610e5c565b610266565b005b6100e160048036038101906100dc9190610f03565b61036b565b005b6100fd60048036038101906100f89190610b23565b6106af565b60405161010d949392919061110d565b60405180910390f35b6000818154811061012657600080fd5b90600052602060002090600602016000915090508060000180546101499061119d565b80601f01602080910402602001604051908101604052809291908181526020018280546101759061119d565b80156101c25780601f10610197576101008083540402835291602001916101c2565b820191906000526020600020905b8154815290600101906020018083116101a557829003601f168201915b5050505050908060010180546101d79061119d565b80601f01602080910402602001604051908101604052809291908181526020018280546102039061119d565b80156102505780601f1061022557610100808354040283529160200191610250565b820191906000526020600020905b81548152906001019060200180831161023357829003601f168201915b5050505050905082565b60008080549050905090565b60008151116102aa576040517f08c379a00000000000000000000000000000000000000000000000000000000081526004016102a19061121a565b60405180910390fd5b6000806001816001815401808255809150500390600052602060002090600602019050838160000190816102de91906113e6565b50828160010190816102f091906113e6565b50818160020190805190602001906103099291906109ff565b5060005b825181101561036457816003018160008054905061032b91906114e7565b9080600181540180825580915050600190039060005260206000200160009091909190915055808061035c9061151b565b91505061030d565b5050505050565b60008054905082106103b2576040517f08c379a00000000000000000000000000000000000000000000000000000000081526004016103a9906115af565b60405180910390fd5b600082815481106103c6576103c56115cf565b5b906000526020600020906006020160030180549050811061041c576040517f08c379a00000000000000000000000000000000000000000000000000000000081526004016104139061164a565b60405180910390fd5b6000805b60008481548110610434576104336115cf565b5b906000526020600020906006020160040180549050811015610500573373ffffffffffffffffffffffffffffffffffffffff166000858154811061047b5761047a6115cf565b5b9060005260206000209060060201600401828154811061049e5761049d6115cf565b5b9060005260206000200160009054906101000a900473ffffffffffffffffffffffffffffffffffffffff1673ffffffffffffffffffffffffffffffffffffffff16036104ed5760019150610500565b80806104f89061151b565b915050610420565b508015610542576040517f08c379a0000000000000000000000000000000000000000000000000000000008152600401610539906116b6565b60405180910390fd5b60008381548110610556576105556115cf565b5b9060005260206000209060060201600401339080600181540180825580915050600190039060005260206000200160009091909190916101000a81548173ffffffffffffffffffffffffffffffffffffffff021916908373ffffffffffffffffffffffffffffffffffffffff16021790555060008084815481106105dd576105dc6115cf565b5b90600052602060002090600602016003018381548110610600576105ff6115cf565b5b9060005260206000200154905060008481548110610621576106206115cf565b5b9060005260206000209060060201600501600082815260200190815260200160002060008154809291906106549061151b565b91905055503373ffffffffffffffffffffffffffffffffffffffff167fea66f58e474bc09f580000e81f31b334d171db387d0c6098ba47bd897741679b85836040516106a19291906116d6565b60405180910390a250505050565b60608060608060008054905085106106fc576040517f08c379a00000000000000000000000000000000000000000000000000000000081526004016106f3906115af565b60405180910390fd5b6000808681548110610711576107106115cf565b5b906000526020600020906006020190506000816003018054905067ffffffffffffffff81111561074457610743610c4b565b5b6040519080825280602002602001820160405280156107725781602001602082028036833780820191505090505b50905060005b82600301805490508110156107f557600083600301828154811061079f5761079e6115cf565b5b90600052602060002001549050836005016000828152602001908152602001600020548383815181106107d5576107d46115cf565b5b6020026020010181815250505080806107ed9061151b565b915050610778565b508160000182600101836002018383805461080f9061119d565b80601f016020809104026020016040519081016040528092919081815260200182805461083b9061119d565b80156108885780601f1061085d57610100808354040283529160200191610888565b820191906000526020600020905b81548152906001019060200180831161086b57829003601f168201915b5050505050935082805461089b9061119d565b80601f01602080910402602001604051908101604052809291908181526020018280546108c79061119d565b80156109145780601f106108e957610100808354040283529160200191610914565b820191906000526020600020905b8154815290600101906020018083116108f757829003601f168201915b5050505050925081805480602002602001604051908101604052809291908181526020016000905b828210156109e857838290600052602060002001805461095b9061119d565b80601f01602080910402602001604051908101604052809291908181526020018280546109879061119d565b80156109d45780601f106109a9576101008083540402835291602001916109d4565b820191906000526020600020905b8154815290600101906020018083116109b757829003601f168201915b50505050508152602001906001019061093c565b505050509150955095509550955050509193509193565b828054828255906000526020600020908101928215610a47579160200282015b82811115610a46578251829081610a3691906113e6565b5091602001919060010190610a1f565b5b509050610a549190610a58565b5090565b5b80821115610a785760008181610a6f9190610a7c565b50600101610a59565b5090565b508054610a889061119d565b6000825580601f10610a9a5750610ab9565b601f016020900490600052602060002090810190610ab89190610abc565b5b50565b5b80821115610ad5576000816000905550600101610abd565b5090565b6000604051905090565b600080fd5b600080fd5b6000819050919050565b610b0081610aed565b8114610b0b57600080fd5b50565b600081359050610b1d81610af7565b92915050565b600060208284031215610b3957610b38610ae3565b5b6000610b4784828501610b0e565b91505092915050565b600081519050919050565b600082825260208201905092915050565b60005b83811015610b8a578082015181840152602081019050610b6f565b60008484015250505050565b6000601f19601f8301169050919050565b6000610bb282610b50565b610bbc8185610b5b565b9350610bcc818560208601610b6c565b610bd581610b96565b840191505092915050565b60006040820190508181036000830152610bfa8185610ba7565b90508181036020830152610c0e8184610ba7565b90509392505050565b610c2081610aed565b82525050565b6000602082019050610c3b6000830184610c17565b92915050565b600080fd5b600080fd5b7f4e487b7100000000000000000000000000000000000000000000000000000000600052604160045260246000fd5b610c8382610b96565b810181811067ffffffffffffffff82111715610ca257610ca1610c4b565b5b80604052505050565b6000610cb5610ad9565b9050610cc18282610c7a565b919050565b600067ffffffffffffffff821115610ce157610ce0610c4b565b5b610cea82610b96565b9050602081019050919050565b82818337600083830152505050565b6000610d19610d1484610cc6565b610cab565b905082815260208101848484011115610d3557610d34610c46565b5b610d40848285610cf7565b509392505050565b600082601f830112610d5d57610d5c610c41565b5b8135610d6d848260208601610d06565b91505092915050565b600067ffffffffffffffff821115610d9157610d90610c4b565b5b602082029050602081019050919050565b600080fd5b6000610dba610db584610d76565b610cab565b90508083825260208201905060208402830185811115610ddd57610ddc610da2565b5b835b81811015610e2457803567ffffffffffffffff811115610e0257610e01610c41565b5b808601610e0f8982610d48565b85526020850194505050602081019050610ddf565b5050509392505050565b600082601f830112610e4357610e42610c41565b5b8135610e53848260208601610da7565b91505092915050565b600080600060608486031215610e7557610e74610ae3565b5b600084013567ffffffffffffffff811115610e9357610e92610ae8565b5b610e9f86828701610d48565b935050602084013567ffffffffffffffff811115610ec057610ebf610ae8565b5b610ecc86828701610d48565b925050604084013567ffffffffffffffff811115610eed57610eec610ae8565b5b610ef986828701610e2e565b9150509250925092565b60008060408385031215610f1a57610f19610ae3565b5b6000610f2885828601610b0e565b9250506020610f3985828601610b0e565b9150509250929050565b600081519050919050565b600082825260208201905092915050565b6000819050602082019050919050565b600082825260208201905092915050565b6000610f8b82610b50565b610f958185610f6f565b9350610fa5818560208601610b6c565b610fae81610b96565b840191505092915050565b6000610fc58383610f80565b905092915050565b6000602082019050919050565b6000610fe582610f43565b610fef8185610f4e565b93508360208202850161100185610f5f565b8060005b8581101561103d578484038952815161101e8582610fb9565b945061102983610fcd565b925060208a01995050600181019050611005565b50829750879550505050505092915050565b600081519050919050565b600082825260208201905092915050565b6000819050602082019050919050565b61108481610aed565b82525050565b6000611096838361107b565b60208301905092915050565b6000602082019050919050565b60006110ba8261104f565b6110c4818561105a565b93506110cf8361106b565b8060005b838110156111005781516110e7888261108a565b97506110f2836110a2565b9250506001810190506110d3565b5085935050505092915050565b600060808201905081810360008301526111278187610ba7565b9050818103602083015261113b8186610ba7565b9050818103604083015261114f8185610fda565b9050818103606083015261116381846110af565b905095945050505050565b7f4e487b7100000000000000000000000000000000000000000000000000000000600052602260045260246000fd5b600060028204905060018216806111b557607f821691505b6020821081036111c8576111c761116e565b5b50919050565b7f4174206c65617374206f6e65206f7074696f6e20726571756972656400000000600082015250565b6000611204601c83610b5b565b915061120f826111ce565b602082019050919050565b60006020820190508181036000830152611233816111f7565b9050919050565b60008190508160005260206000209050919050565b60006020601f8301049050919050565b600082821b905092915050565b60006008830261129c7fffffffffffffffffffffffffffffffffffffffffffffffffffffffffffffffff8261125f565b6112a6868361125f565b95508019841693508086168417925050509392505050565b6000819050919050565b60006112e36112de6112d984610aed565b6112be565b610aed565b9050919050565b6000819050919050565b6112fd836112c8565b611311611309826112ea565b84845461126c565b825550505050565b600090565b611326611319565b6113318184846112f4565b505050565b5b818110156113555761134a60008261131e565b600181019050611337565b5050565b601f82111561139a5761136b8161123a565b6113748461124f565b81016020851015611383578190505b61139761138f8561124f565b830182611336565b50505b505050565b600082821c905092915050565b60006113bd6000198460080261139f565b1980831691505092915050565b60006113d683836113ac565b9150826002028217905092915050565b6113ef82610b50565b67ffffffffffffffff81111561140857611407610c4b565b5b611412825461119d565b61141d828285611359565b600060209050601f831160018114611450576000841561143e578287015190505b61144885826113ca565b8655506114b0565b601f19841661145e8661123a565b60005b8281101561148657848901518255600182019150602085019450602081019050611461565b868310156114a3578489015161149f601f8916826113ac565b8355505b6001600288020188555050505b505050505050565b7f4e487b7100000000000000000000000000000000000000000000000000000000600052601160045260246000fd5b60006114f282610aed565b91506114fd83610aed565b9250828201905080821115611515576115146114b8565b5b92915050565b600061152682610aed565b91507fffffffffffffffffffffffffffffffffffffffffffffffffffffffffffffffff8203611558576115576114b8565b5b600182019050919050565b7f496e76616c69642070726f706f73616c20696e64657800000000000000000000600082015250565b6000611599601683610b5b565b91506115a482611563565b602082019050919050565b600060208201905081810360008301526115c88161158c565b9050919050565b7f4e487b7100000000000000000000000000000000000000000000000000000000600052603260045260246000fd5b7f496e76616c6964206f7074696f6e20696e646578000000000000000000000000600082015250565b6000611634601483610b5b565b915061163f826115fe565b602082019050919050565b6000602082019050818103600083015261166381611627565b9050919050565b7f416c726561647920766f74656400000000000000000000000000000000000000600082015250565b60006116a0600d83610b5b565b91506116ab8261166a565b602082019050919050565b600060208201905081810360008301526116cf81611693565b9050919050565b60006040820190506116eb6000830185610c17565b6116f86020830184610c17565b939250505056fea2646970667358221220dcfb6f86e9c900a377053152719529b0f6f87d36edaf8bdc56b7bb2b68b705db64736f6c63430008130033",
  "immutableReferences": {},
  "source": "//SPDX-License-Identifier: UNLICENSED\r\npragma solidity 0.8.19;\r\nimport \"../zk/Verifier.sol\";\r\n\r\ncontract Voting {\r\n    struct Proposal {\r\n        string topic;\r\n        string description;\r\n        string[] optionTexts;  //        \r\n        uint256[] optionIndices;\r\n        address[] votedAddresses;\r\n        mapping(uint256 => uint256) votes;\r\n    }\r\n\r\n    Proposal[] public proposals;\r\n    address private verifier;\r\n\r\n    event Voted(address indexed voter, uint256 proposalIndex, uint256 optionIndex);\r\n\r\n    constructor(address _verifier) {\r\n        verifier = _verifier;\r\n    }\r\n\r\n    function addProposal(string memory _topic, string memory _description, string[] memory _options) external {\r\n        require(_options.length > 0, \"At least one option required\");\r\n\r\n        Proposal storage newProposal = proposals.push();\r\n\r\n        newProposal.topic = _topic;\r\n        newProposal.description = _description;\r\n        newProposal.optionTexts = _options;\r\n\r\n        for (uint256 i = 0; i < _options.length; i++) {\r\n            newProposal.optionIndices.push(proposals.length + i);\r\n        }\r\n    }\r\n\r\n    function vote(uint256 proposalIndex, uint256 optionIndex) external {\r\n        require(proposalIndex < proposals.length, \"Invalid proposal index\");\r\n        require(optionIndex < proposals[proposalIndex].optionIndices.length, \"Invalid option index\");\r\n\r\n        // // Fetch necessary parameters from the Verifier contract\r\n        // Verifier verifierContract = Verifier(verifier);\r\n        \r\n        // // Prepare the real proof using the obtained parameters\r\n        // Verifier.Proof memory realProof = Verifier.Proof({\r\n        //     a: Pairing.G1Point(0x26b5ed7fbdd1fa8fc93ab749989bab202c22b0a3d8707fc017e2495c5f4691b7, 0x17db6fd9b86a269a3f02eb59c79f63b97fad97430f90a2fbb35a40594f860b97),\r\n        //     b: Pairing.G2Point([0x01e81e90c91130b6e5addec06ec62e69af0c6884dee74a8ac05eaf600c2ed272, 0x1c891bd5f2662503bb79793333a68034f19cdc17c53e979a59b2d11b291407af], [0x235ea82ffce62de9c50717882c5cf8c00310d68cedb0e5860a2f7ac3a1428edf, 0x16f99a3cb1621043376329458f49dc58a3bc73c93501cd8f70241e4fdc4d2de6]),\r\n        //     c: Pairing.G1Point(0x0badfa046127250260d994eeeda428b1ec7893ef0abf9f6b8f7ca74aad285354, 0x184ae689fab181bc3a6abc64e9d32b93921a57a8a917398153087fa6a5b59d73)\r\n        // });\r\n\r\n        // // Call zk-SNARKs verification with the real proof and input data\r\n        // bool verificationResult = verifierContract.verifyTx(realProof, [proposalIndex, optionIndex]);\r\n\r\n        // require(verificationResult, \"Token verification failed\");\r\n\r\n        // Check if the sender's address is in the votedAddresses array\r\n        bool hasVoted = false;\r\n        for (uint256 i = 0; i < proposals[proposalIndex].votedAddresses.length; i++) {\r\n            if (proposals[proposalIndex].votedAddresses[i] == msg.sender) {\r\n                hasVoted = true;\r\n                break;\r\n            }\r\n        }\r\n        require(!hasVoted, \"Already voted\");\r\n\r\n        // Add the sender's address to the votedAddresses array\r\n        proposals[proposalIndex].votedAddresses.push(msg.sender);\r\n\r\n        uint256 optionIndexInArray = proposals[proposalIndex].optionIndices[optionIndex];\r\n        proposals[proposalIndex].votes[optionIndexInArray]++;\r\n\r\n        emit Voted(msg.sender, proposalIndex, optionIndexInArray);\r\n    }\r\n\r\n\r\n    function getProposalInfo(uint256 proposalIndex) external view returns (string memory, string memory, string[] memory, uint256[] memory) {\r\n        require(proposalIndex < proposals.length, \"Invalid proposal index\");\r\n\r\n        Proposal storage proposal = proposals[proposalIndex];\r\n        uint256[] memory votes = new uint256[](proposal.optionIndices.length);\r\n\r\n        for (uint256 i = 0; i < proposal.optionIndices.length; i++) {\r\n            uint256 optionIndex = proposal.optionIndices[i];\r\n            votes[i] = proposal.votes[optionIndex];\r\n        }\r\n\r\n        return (proposal.topic, proposal.description, proposal.optionTexts, votes);\r\n    }\r\n\r\n    function proposalsCount() external view returns (uint256) {\r\n        return proposals.length;\r\n    }\r\n}\r\n",
  "sourcePath": "C:\\Users\\55544\\Desktop\\EtherVote\\etherium\\contracts\\voting.sol",
  "compiler": {
    "name": "solc",
    "version": "0.8.19+commit.7dd6d404.Emscripten.clang"
  },
  "schemaVersion": "3.4.16",
  "updatedAt": "2024-01-17T15:06:37.242Z",
  "networkType": "ethereum",
  "devdoc": {
    "kind": "dev",
    "methods": {},
    "version": 1
  },
  "userdoc": {
    "kind": "user",
    "methods": {},
    "version": 1
  }
}