{
  "contractName": "Voting",
  "abi": [
    {
      "inputs": [
        {
          "internalType": "string[]",
          "name": "_optionNames",
          "type": "string[]"
        }
      ],
      "stateMutability": "nonpayable",
      "type": "constructor"
    },
    {
      "anonymous": false,
      "inputs": [
        {
          "indexed": true,
          "internalType": "address",
          "name": "voter",
          "type": "address"
        },
        {
          "indexed": false,
          "internalType": "string",
          "name": "choice",
          "type": "string"
        }
      ],
      "name": "Voted",
      "type": "event"
    },
    {
      "inputs": [],
      "name": "admin",
      "outputs": [
        {
          "internalType": "address",
          "name": "",
          "type": "address"
        }
      ],
      "stateMutability": "view",
      "type": "function",
      "constant": true
    },
    {
      "inputs": [
        {
          "internalType": "address",
          "name": "",
          "type": "address"
        }
      ],
      "name": "hasVoted",
      "outputs": [
        {
          "internalType": "bool",
          "name": "",
          "type": "bool"
        }
      ],
      "stateMutability": "view",
      "type": "function",
      "constant": true
    },
    {
      "inputs": [
        {
          "internalType": "uint256",
          "name": "",
          "type": "uint256"
        }
      ],
      "name": "options",
      "outputs": [
        {
          "internalType": "string",
          "name": "name",
          "type": "string"
        },
        {
          "internalType": "uint256",
          "name": "votes",
          "type": "uint256"
        }
      ],
      "stateMutability": "view",
      "type": "function",
      "constant": true
    },
    {
      "inputs": [],
      "name": "totalVotes",
      "outputs": [
        {
          "internalType": "uint256",
          "name": "",
          "type": "uint256"
        }
      ],
      "stateMutability": "view",
      "type": "function",
      "constant": true
    },
    {
      "inputs": [
        {
          "internalType": "address",
          "name": "",
          "type": "address"
        }
      ],
      "name": "votes",
      "outputs": [
        {
          "internalType": "address",
          "name": "voter",
          "type": "address"
        },
        {
          "internalType": "string",
          "name": "choice",
          "type": "string"
        }
      ],
      "stateMutability": "view",
      "type": "function",
      "constant": true
    },
    {
      "inputs": [
        {
          "internalType": "string",
          "name": "choice",
          "type": "string"
        }
      ],
      "name": "vote",
      "outputs": [],
      "stateMutability": "nonpayable",
      "type": "function"
    }
  ],
  "bytecode": "0x60806040523480156200001157600080fd5b506040516200195b3803806200195b8339818101604052810190620000379190620003b3565b336000806101000a81548173ffffffffffffffffffffffffffffffffffffffff021916908373ffffffffffffffffffffffffffffffffffffffff16021790555060005b81518110156200011c5760026040518060400160405280848481518110620000a757620000a662000404565b5b60200260200101518152602001600081525090806001815401808255809150506001900390600052602060002090600202016000909190919091506000820151816000019081620000f991906200067e565b506020820151816001015550508080620001139062000794565b9150506200007a565b5050620007e1565b6000604051905090565b600080fd5b600080fd5b600080fd5b6000601f19601f8301169050919050565b7f4e487b7100000000000000000000000000000000000000000000000000000000600052604160045260246000fd5b62000188826200013d565b810181811067ffffffffffffffff82111715620001aa57620001a96200014e565b5b80604052505050565b6000620001bf62000124565b9050620001cd82826200017d565b919050565b600067ffffffffffffffff821115620001f057620001ef6200014e565b5b602082029050602081019050919050565b600080fd5b600080fd5b600067ffffffffffffffff8211156200022957620002286200014e565b5b62000234826200013d565b9050602081019050919050565b60005b838110156200026157808201518184015260208101905062000244565b60008484015250505050565b6000620002846200027e846200020b565b620001b3565b905082815260208101848484011115620002a357620002a262000206565b5b620002b084828562000241565b509392505050565b600082601f830112620002d057620002cf62000138565b5b8151620002e28482602086016200026d565b91505092915050565b600062000302620002fc84620001d2565b620001b3565b9050808382526020820190506020840283018581111562000328576200032762000201565b5b835b818110156200037657805167ffffffffffffffff81111562000351576200035062000138565b5b808601620003608982620002b8565b855260208501945050506020810190506200032a565b5050509392505050565b600082601f83011262000398576200039762000138565b5b8151620003aa848260208601620002eb565b91505092915050565b600060208284031215620003cc57620003cb6200012e565b5b600082015167ffffffffffffffff811115620003ed57620003ec62000133565b5b620003fb8482850162000380565b91505092915050565b7f4e487b7100000000000000000000000000000000000000000000000000000000600052603260045260246000fd5b600081519050919050565b7f4e487b7100000000000000000000000000000000000000000000000000000000600052602260045260246000fd5b600060028204905060018216806200048657607f821691505b6020821081036200049c576200049b6200043e565b5b50919050565b60008190508160005260206000209050919050565b60006020601f8301049050919050565b600082821b905092915050565b600060088302620005067fffffffffffffffffffffffffffffffffffffffffffffffffffffffffffffffff82620004c7565b620005128683620004c7565b95508019841693508086168417925050509392505050565b6000819050919050565b6000819050919050565b60006200055f6200055962000553846200052a565b62000534565b6200052a565b9050919050565b6000819050919050565b6200057b836200053e565b620005936200058a8262000566565b848454620004d4565b825550505050565b600090565b620005aa6200059b565b620005b781848462000570565b505050565b5b81811015620005df57620005d3600082620005a0565b600181019050620005bd565b5050565b601f8211156200062e57620005f881620004a2565b6200060384620004b7565b8101602085101562000613578190505b6200062b6200062285620004b7565b830182620005bc565b50505b505050565b600082821c905092915050565b6000620006536000198460080262000633565b1980831691505092915050565b60006200066e838362000640565b9150826002028217905092915050565b620006898262000433565b67ffffffffffffffff811115620006a557620006a46200014e565b5b620006b182546200046d565b620006be828285620005e3565b600060209050601f831160018114620006f65760008415620006e1578287015190505b620006ed858262000660565b8655506200075d565b601f1984166200070686620004a2565b60005b82811015620007305784890151825560018201915060208501945060208101905062000709565b868310156200075057848901516200074c601f89168262000640565b8355505b6001600288020188555050505b505050505050565b7f4e487b7100000000000000000000000000000000000000000000000000000000600052601160045260246000fd5b6000620007a1826200052a565b91507fffffffffffffffffffffffffffffffffffffffffffffffffffffffffffffffff8203620007d657620007d562000765565b5b600182019050919050565b61116a80620007f16000396000f3fe608060405234801561001057600080fd5b50600436106100625760003560e01c806309eef43e146100675780630d15fd7714610097578063409e2205146100b5578063d8bff5a5146100e6578063f851a44014610117578063fc36e15b14610135575b600080fd5b610081600480360381019061007c91906107d5565b610151565b60405161008e919061081d565b60405180910390f35b61009f610171565b6040516100ac9190610851565b60405180910390f35b6100cf60048036038101906100ca9190610898565b610177565b6040516100dd929190610955565b60405180910390f35b61010060048036038101906100fb91906107d5565b610233565b60405161010e929190610994565b60405180910390f35b61011f6102ff565b60405161012c91906109c4565b60405180910390f35b61014f600480360381019061014a9190610b14565b610323565b005b60036020528060005260406000206000915054906101000a900460ff1681565b60015481565b6002818154811061018757600080fd5b90600052602060002090600202016000915090508060000180546101aa90610b8c565b80601f01602080910402602001604051908101604052809291908181526020018280546101d690610b8c565b80156102235780601f106101f857610100808354040283529160200191610223565b820191906000526020600020905b81548152906001019060200180831161020657829003601f168201915b5050505050908060010154905082565b60046020528060005260406000206000915090508060000160009054906101000a900473ffffffffffffffffffffffffffffffffffffffff169080600101805461027c90610b8c565b80601f01602080910402602001604051908101604052809291908181526020018280546102a890610b8c565b80156102f55780601f106102ca576101008083540402835291602001916102f5565b820191906000526020600020905b8154815290600101906020018083116102d857829003601f168201915b5050505050905082565b60008054906101000a900473ffffffffffffffffffffffffffffffffffffffff1681565b600360003373ffffffffffffffffffffffffffffffffffffffff1673ffffffffffffffffffffffffffffffffffffffff16815260200190815260200160002060009054906101000a900460ff16156103b0576040517f08c379a00000000000000000000000000000000000000000000000000000000081526004016103a790610c09565b60405180910390fd5b6103b9816105c6565b6103f8576040517f08c379a00000000000000000000000000000000000000000000000000000000081526004016103ef90610c75565b60405180910390fd5b60405180604001604052803373ffffffffffffffffffffffffffffffffffffffff16815260200182815250600460003373ffffffffffffffffffffffffffffffffffffffff1673ffffffffffffffffffffffffffffffffffffffff16815260200190815260200160002060008201518160000160006101000a81548173ffffffffffffffffffffffffffffffffffffffff021916908373ffffffffffffffffffffffffffffffffffffffff16021790555060208201518160010190816104be9190610e41565b5090505060026104cd8261067a565b815481106104de576104dd610f13565b5b9060005260206000209060020201600101600081548092919061050090610f71565b91905055506001600360003373ffffffffffffffffffffffffffffffffffffffff1673ffffffffffffffffffffffffffffffffffffffff16815260200190815260200160002060006101000a81548160ff0219169083151502179055506001600081548092919061057090610f71565b91905055503373ffffffffffffffffffffffffffffffffffffffff167fcb6783276e8a4347387036bbfea000268f0a4b1f8c46ac79980609f2af8d2acd826040516105bb9190610fb9565b60405180910390a250565b600080600090505b60028054905081101561066f57826040516020016105ec9190611017565b604051602081830303815290604052805190602001206002828154811061061657610615610f13565b5b906000526020600020906002020160000160405160200161063791906110b1565b604051602081830303815290604052805190602001200361065c576001915050610675565b808061066790610f71565b9150506105ce565b50600090505b919050565b600080600090505b60028054905081101561072257826040516020016106a09190611017565b60405160208183030381529060405280519060200120600282815481106106ca576106c9610f13565b5b90600052602060002090600202016000016040516020016106eb91906110b1565b604051602081830303815290604052805190602001200361070f578091505061075e565b808061071a90610f71565b915050610682565b506040517f08c379a000000000000000000000000000000000000000000000000000000000815260040161075590611114565b60405180910390fd5b919050565b6000604051905090565b600080fd5b600080fd5b600073ffffffffffffffffffffffffffffffffffffffff82169050919050565b60006107a282610777565b9050919050565b6107b281610797565b81146107bd57600080fd5b50565b6000813590506107cf816107a9565b92915050565b6000602082840312156107eb576107ea61076d565b5b60006107f9848285016107c0565b91505092915050565b60008115159050919050565b61081781610802565b82525050565b6000602082019050610832600083018461080e565b92915050565b6000819050919050565b61084b81610838565b82525050565b60006020820190506108666000830184610842565b92915050565b61087581610838565b811461088057600080fd5b50565b6000813590506108928161086c565b92915050565b6000602082840312156108ae576108ad61076d565b5b60006108bc84828501610883565b91505092915050565b600081519050919050565b600082825260208201905092915050565b60005b838110156108ff5780820151818401526020810190506108e4565b60008484015250505050565b6000601f19601f8301169050919050565b6000610927826108c5565b61093181856108d0565b93506109418185602086016108e1565b61094a8161090b565b840191505092915050565b6000604082019050818103600083015261096f818561091c565b905061097e6020830184610842565b9392505050565b61098e81610797565b82525050565b60006040820190506109a96000830185610985565b81810360208301526109bb818461091c565b90509392505050565b60006020820190506109d96000830184610985565b92915050565b600080fd5b600080fd5b7f4e487b7100000000000000000000000000000000000000000000000000000000600052604160045260246000fd5b610a218261090b565b810181811067ffffffffffffffff82111715610a4057610a3f6109e9565b5b80604052505050565b6000610a53610763565b9050610a5f8282610a18565b919050565b600067ffffffffffffffff821115610a7f57610a7e6109e9565b5b610a888261090b565b9050602081019050919050565b82818337600083830152505050565b6000610ab7610ab284610a64565b610a49565b905082815260208101848484011115610ad357610ad26109e4565b5b610ade848285610a95565b509392505050565b600082601f830112610afb57610afa6109df565b5b8135610b0b848260208601610aa4565b91505092915050565b600060208284031215610b2a57610b2961076d565b5b600082013567ffffffffffffffff811115610b4857610b47610772565b5b610b5484828501610ae6565b91505092915050565b7f4e487b7100000000000000000000000000000000000000000000000000000000600052602260045260246000fd5b60006002820490506001821680610ba457607f821691505b602082108103610bb757610bb6610b5d565b5b50919050565b7f596f75206861766520616c726561647920766f74656400000000000000000000600082015250565b6000610bf36016836108d0565b9150610bfe82610bbd565b602082019050919050565b60006020820190508181036000830152610c2281610be6565b9050919050565b7f496e76616c69642063686f696365000000000000000000000000000000000000600082015250565b6000610c5f600e836108d0565b9150610c6a82610c29565b602082019050919050565b60006020820190508181036000830152610c8e81610c52565b9050919050565b60008190508160005260206000209050919050565b60006020601f8301049050919050565b600082821b905092915050565b600060088302610cf77fffffffffffffffffffffffffffffffffffffffffffffffffffffffffffffffff82610cba565b610d018683610cba565b95508019841693508086168417925050509392505050565b6000819050919050565b6000610d3e610d39610d3484610838565b610d19565b610838565b9050919050565b6000819050919050565b610d5883610d23565b610d6c610d6482610d45565b848454610cc7565b825550505050565b600090565b610d81610d74565b610d8c818484610d4f565b505050565b5b81811015610db057610da5600082610d79565b600181019050610d92565b5050565b601f821115610df557610dc681610c95565b610dcf84610caa565b81016020851015610dde578190505b610df2610dea85610caa565b830182610d91565b50505b505050565b600082821c905092915050565b6000610e1860001984600802610dfa565b1980831691505092915050565b6000610e318383610e07565b9150826002028217905092915050565b610e4a826108c5565b67ffffffffffffffff811115610e6357610e626109e9565b5b610e6d8254610b8c565b610e78828285610db4565b600060209050601f831160018114610eab5760008415610e99578287015190505b610ea38582610e25565b865550610f0b565b601f198416610eb986610c95565b60005b82811015610ee157848901518255600182019150602085019450602081019050610ebc565b86831015610efe5784890151610efa601f891682610e07565b8355505b6001600288020188555050505b505050505050565b7f4e487b7100000000000000000000000000000000000000000000000000000000600052603260045260246000fd5b7f4e487b7100000000000000000000000000000000000000000000000000000000600052601160045260246000fd5b6000610f7c82610838565b91507fffffffffffffffffffffffffffffffffffffffffffffffffffffffffffffffff8203610fae57610fad610f42565b5b600182019050919050565b60006020820190508181036000830152610fd3818461091c565b905092915050565b600081905092915050565b6000610ff1826108c5565b610ffb8185610fdb565b935061100b8185602086016108e1565b80840191505092915050565b60006110238284610fe6565b915081905092915050565b6000815461103b81610b8c565b6110458186610fdb565b945060018216600081146110605760018114611075576110a8565b60ff19831686528115158202860193506110a8565b61107e85610c95565b60005b838110156110a057815481890152600182019150602081019050611081565b838801955050505b50505092915050565b60006110bd828461102e565b915081905092915050565b7f4f7074696f6e206e6f7420666f756e6400000000000000000000000000000000600082015250565b60006110fe6010836108d0565b9150611109826110c8565b602082019050919050565b6000602082019050818103600083015261112d816110f1565b905091905056fea26469706673582212201d49d5ad4de2c205989543aec572d00057e76722551d9b341ec2c60cb4a367fb64736f6c63430008130033",
  "immutableReferences": {},
  "source": "//SPDX-License-Identifier: UNLICENSED\r\n\r\npragma solidity 0.8.19;\r\n\r\ncontract Voting {\r\n    address public admin;\r\n    uint public totalVotes;\r\n    \r\n    struct Option {\r\n        string name;\r\n        uint votes;\r\n    }\r\n\r\n    struct Vote {\r\n        address voter;\r\n        string choice;\r\n    }\r\n\r\n    Option[] public options;\r\n    mapping(address => bool) public hasVoted;\r\n    mapping(address => Vote) public votes;\r\n\r\n    event Voted(address indexed voter, string choice);\r\n\r\n    modifier onlyAdmin() {\r\n        require(msg.sender == admin, \"Only admin can perform this action\");\r\n        _;\r\n    }\r\n\r\n    constructor(string[] memory _optionNames) {\r\n        admin = msg.sender;\r\n\r\n        for (uint i = 0; i < _optionNames.length; i++) {\r\n            options.push(Option({\r\n                name: _optionNames[i],\r\n                votes: 0\r\n            }));\r\n        }\r\n    }\r\n\r\n    function vote(string memory choice) external {\r\n        require(!hasVoted[msg.sender], \"You have already voted\");\r\n        require(validateOption(choice), \"Invalid choice\");\r\n\r\n        votes[msg.sender] = Vote({\r\n            voter: msg.sender,\r\n            choice: choice\r\n        });\r\n\r\n        options[getOptionIndex(choice)].votes++;\r\n        hasVoted[msg.sender] = true;\r\n        totalVotes++;\r\n\r\n        emit Voted(msg.sender, choice);\r\n    }\r\n\r\n    function validateOption(string memory choice) internal view returns (bool) {\r\n        for (uint i = 0; i < options.length; i++) {\r\n            if (keccak256(abi.encodePacked(options[i].name)) == keccak256(abi.encodePacked(choice))) {\r\n                return true;\r\n            }\r\n        }\r\n        return false;\r\n    }\r\n\r\n    function getOptionIndex(string memory choice) internal view returns (uint) {\r\n        for (uint i = 0; i < options.length; i++) {\r\n            if (keccak256(abi.encodePacked(options[i].name)) == keccak256(abi.encodePacked(choice))) {\r\n                return i;\r\n            }\r\n        }\r\n        revert(\"Option not found\");\r\n    }\r\n}",
  "sourcePath": "C:\\Users\\55544\\Desktop\\EtherVote\\etherium\\contracts\\voting.sol",
  "compiler": {
    "name": "solc",
    "version": "0.8.19+commit.7dd6d404.Emscripten.clang"
  },
  "schemaVersion": "3.4.16",
  "updatedAt": "2024-01-11T13:59:24.901Z",
  "networkType": "ethereum",
  "devdoc": {
    "kind": "dev",
    "methods": {},
    "version": 1
  },
  "userdoc": {
    "kind": "user",
    "methods": {},
    "version": 1
  }
}